:10000000313330372C323432372C313330362C32D6
:100010003432352C313335322C323531322C3133C8
:1000200030372C323432362C313237352C323336AD
:10003000372C313237362C323336392C3132373691
:100040002C323336392C313237332C323336342C90
:10005000313234322C323330372C313532352C3288
:100060003833332C313439392C323738332C31345E
:1000700038392C323736342C313438322C3237354B
:10008000322C313437322C323733342C3134363849
:100090002C323732362C313436312C323731322C47
:1000A000313435352C323730332C313433322C3235
:1000B0003635392C2D333030302C31303030302C37
:1000C0000A313239392C323431332C313332342C39
:1000D000323435382C313335302C323530382C3100
:1000E0003333382C323438362C313330312C3234EF
:1000F00031362C313330312C323431362C313239E7
:10010000392C323431332C313239352C32343036CB
:100110002C313236322C323334332C313337352CC8
:10012000323535332C313337372C323535362C31A7
:100130003337342C323535312C313337342C32359A
:1001400035312C313336382C323534312C3133368D
:10015000392C323534322C313336342C3235333479
:100160002C313336332C323533302C313333382C79
:10017000323438362C2D333030302C313030303072
:100180002C0A313239392C323431322C3133313579
:100190002C323434332C313332312C323435332C4D
:1001A000313334312C323439312C313331302C323B
:1001B0003433322C313330392C323433322C313326
:1001C00030382C323432382C313330342C32343213
:1001D000312C313237362C323336392C31333536F7
:1001E0002C323531382C313335382C323532322CF3
:1001F000313335372C323532302C313335352C32E2
:100200003531362C313334392C323530352C3133CD
:1002100034392C323530352C313334352C323439B5
:10022000372C313334332C323439352C31333239A5
:100230002C323436392C313832332C333338352C98
:100240000A313330342C323432312C313333372CC1
:10025000323438342C313332372C323436342C317A
:100260003337312C323534362C313330382C32346C
:1002700033302C313330382C323432382C31333067
:10028000372C323432362C313330312C3234313752
:100290002C313237312C323336312C313334362C49
:1002A000323439392C313334372C323530312C312A
:1002B0003334352C323439372C313334332C323417
:1002C00039352C313333392C323438372C31333300
:1002D000382C323438362C313333352C32343738ED
:1002E0002C313333322C323437332C313330382CF9
:1002F000323432382C2D333030302C3130303030F5
:100300002C0A313330382C323432382C31333635F4
:100310002C323533362C313335392C323532332CBF
:10032000313336392C323534332C313331352C32AC
:100330003434322C313331332C323433382C3133A2
:1003400031302C323433342C313330362C32343299
:10035000352C313237372C323337312C3133333778
:100360002C323438342C313333352C323437392C69
:10037000313333322C323437342C313333312C3265
:100380003437312C313332372C323436342C31334C
:1003900032372C323436342C313332312C3234353E
:1003A000332C313331382C323434382C3132393427
:1003B0002C323430342C2D333030302C313030303E
:1003C000302C0A313331342C323434302C31333345
:1003D000322C323437332C313333372C32343834F7
:1003E0002C313337352C323535332C313333352CF2
:1003F000323437392C313331392C323434392C31D1
:100400003331362C323434342C313331332C3234D2
:1004100033382C313238332C323338332C313334B7
:10042000322C323439322C313332372C32343635A7
:100430002C313332312C323435332C313331392CA9
:10044000323434392C313331352C323434322C318E
:100450003331342C323434302C313330392C323483
:1004600033322C313330372C323432362C3132386F
:10047000312C323338302C2D333030302C31303079
:1004800030302C0A313332392C323436392C313376
:1004900034322C323439322C313333392C32343833
:1004A000372C313333382C323438362C313338341E
:1004B0002C323537302C313333372C323438342C1E
:1004C000313332342C323436302C313332312C3219
:1004D0003435322C313239332C323430302C313304
:1004E00030392C323433322C313330382C323433EF
:1004F000302C313330372C323432372C31333035E5
:100500002C323432332C313330322C323431382CDB
:10051000313330312C323431372C313239372C32BF
:100520003430392C313239342C323430342C3132AD
:1005300037302C323335392C2D333030302C3130AC
:100540003030302C0A313333322C323437332C31C3
:100550003334382C323530332C313334362C32347A
:1005600039392C313334332C323439352C3133365C
:10057000332C323533312C313338372C3235373553
:100580002C313336342C323533342C313334382C4F
:10059000323530332C313330342C323432322C314A
:1005A0003239372C323430392C313239392C32341B
:1005B00031332C313239382C323431312C3132391B
:1005C000372C323430392C313239332C323430310B
:1005D0002C313239332C323430302C313238382C03
:1005E000323339322C313238352C323338372C31E2
:1005F0003236302C323334302C2D333030302C31F5
:10060000303030302C0A313333372C323438342CFC
:10061000313335352C323531362C313335332C32BC
:100620003531332C313335302C323530382C3133B1
:1006300036362C323533382C313337382C32353688
:10064000302C313336352C323533362C313335318D
:100650002C323531302C313335372C323532312C88
:10066000313239302C323339352C313239332C3266
:100670003430302C313239332C323430302C31326A
:1006800039302C323339362C313238362C3233383B
:10069000382C313238352C323338372C313238312E
:1006A0002C323338302C313237382C323337332C2C
:1006B000313235322C323332342C2D333030302C31
:1006C00031303030302C0A313334362C3234393931
:1006D0002C313336332C323533312C313336312C07
:1006E000323532372C313335382C323532322C31E9
:1006F0003335322C323531302C313335322C3235E2
:1007000031302C313335302C323530362C313334D6
:10071000362C323530302C313333302C32343730C4
:100720002C313237392C323337352C313238322CA8
:10073000323338322C313238312C323338302C319C
:100740003237392C323337342C313237342C323380
:1007500036362C313237322C323336322C31323677
:10076000382C323335342C313236352C323334395F
:100770002C313235302C323332312C313737372C63
:10078000333330302C0A313335352C323531372C78
:10079000313337342C323535312C313337322C323A
:1007A0003534382C313337302C323534342C313326
:1007B00036342C323533342C313336352C32353314
:1007C000362C313336332C323533312C313336310C
:1007D0002C323532372C313334362C323530302C04
:1007E000313237392C323337342C313238332C32E2
:1007F0003338332C313238322C323338302C3132DA
:1008000038302C323337362C313237362C323336BF
:10081000392C313237342C323336362C31323639AA
:100820002C323335372C313236362C323335302CAE
:10083000313234302C323330342C2D333030302CB4
:1008400031303030302C0A313338332C32353638B1
:100850002C313431322C323632322C313431372C87
:10086000323633312C313431392C323633342C3169
:100870003431362C323633302C313432302C32365F
:1008800033362C313431392C323633352C31343245
:10089000302C323633362C313431392C3236333435
:1008A0002C313235392C323333392C313236352C28
:1008B000323334392C313236342C323334372C3114
:1008C0003236312C323334312C313235372C32330D
:1008D00033342C313235352C323333312C313235FF
:1008E000312C323332322C313234372C32333135F1
:1008F0002C313232332C323237302C2D33303030F1
:070900002C31303030302CA7
:00000001FF
